:020000020000FC
:0200000030C00E
:02001C00A2C080
:02004400BFC03B
:020050008FC05F
:10006000C7C00024112422243324442455246624A8
:10007000772488249924AA24BB24CC24DD24EE24CC
:10008000FF240027112722273327442755276627D7
:10009000772788279927AA27BB27CC27DD27EE2794
:1000A000FF275FEF5DBF54E05EBF5527E0E0F1E062
:1000B0005193E030E9F7F530D9F7A0E0B1E022271D
:1000C00050EC54BD58E255BD50E052BD57E151BD12
:1000D000409AC0E0D2E0332758E55ABD55275CBDB1
:1000E0005AE45BBD629A50E9509378005EE0509309
:1000F000770050E05093750052E050937400719A6D
:1001000050E45ABF51E050936D0052E650936C009A
:10011000552750936E0050936F00509372005DE02E
:1001200050937100429A4A9A58E050BF6398739A6C
:1001300050E050BB5FEF52BB5FEF2BB0252623FA98
:1001400030F82FB0252618E878944BB0452643FAAE
:1001500050F84FB045264210F8CF5310F6CFA8956F
:10016000F4CF9FB63A9A02FF4A9A0B7F9FBE18952A
:100170004091790080907300AFB6789443FD12C02F
:1001800044FD13C000FF0EC001FD16C004607214D0
:10019000630418F061FC06C08192739409F46394BF
:1001A000AFBE18950E7FAFBE1895E0E0F1E0772462
:1001B00066240360AFBE18958610F4CF0D7F73944C
:1001C000AFBE18959FB6203019F4AA950C9024E084
:1001D000213019F4A03009F41AE807FA16F906FAE2
:1001E00012F92A95000C000C10BD9FBE18E8189556
:1001F0001CBD9FB6303019F4CA95188034E03130F8
:1002000019F4C03009F41AE817FA16F916FA12F9B7
:100210003A95110C110C1CBD10E4399B11E41BBD67
:0602200018E89FBE1895CE
:103FEC00444D583253474D20563320627920476157
:043FFC006273276560
:00000001FF
