:020000020000FC
:0200000030C00E
:02001C00F2C030
:020044008CC06E
:020050009AC054
:10006000B8C00024112422243324442455246624B7
:10007000772488249924AA24BB24CC24DD24EE24CC
:10008000FF240027112722273327442755276627D7
:10009000772788279927AA27BB27CC27DD27EE2794
:1000A000FF274427E0E0F2E04193F430E9F7A0E0D5
:1000B000B2E000E040EC44BD48E245BD40E042BD56
:1000C00047E141BD40E9409378004EE0409377001E
:1000D00040E04093750042E040937400719AC0E0A4
:1000E000D3E010E042E04BBB41E04ABB4FE248BBEB
:1000F00044E54ABD4AE44BBD629A40E44ABF41E050
:1001000040936D0042E640936C00442740936E009C
:1001100040936F00409372004DE040937100429A0B
:100120004A9A40E040BB4FEF42BB6398739A48E065
:1001300040BF5FEF3BB0352633FA40F83FB035267D
:1001400078947BB1752778707695769576955FB0C3
:1001500055265310F6CF7411F4CFA895F2CF28E8A6
:10016000003019F4AA950C9004E0013019F4A03085
:1001700009F42AE807FA26F906FA22F90A95000C8A
:10018000000C20BD189540917900209073002082CA
:1001900043FD0DC044FD10C060FD09C061FD15C0E8
:1001A0008315940508F02192019664E0189561E0AA
:1001B000477F409379001895E0E0F2E080E090E01E
:1001C0004F7E4093790062E018952912F0CF64E0E9
:1001D00018953FEF3CBD38E8103019F4CA951880E7
:1001E00014E0113019F4C03009F43AE817FA36F97E
:1001F00016FA32F91A95110C110C3CBD48E44BBDAE
:10020000189562FF05C03A9B03C04A986B7F18950A
:060210004A9A6B7F18956D
:00000001FF
